:020000040800F2
:1000000000000120C5020008CB020008CF02000852
:1000100041030008450300088D03000800000000AC
:10002000000000000000000000000000D5030008F0
:10003000D903000800000000DD030008E9110008F2
:10004000F1030008F1030008F1030008F1030008C0
:10005000F1030008F1030008750B0008950B000878
:10006000B50B0008F1030008F1030008F1030008D4
:10007000F1030008F1030008F1030008F103000890
:10008000F1030008F1030008F1030008000000007C
:10009000000000000000000000000000F103000864
:1000A000F1030008F1030008F1030008F103000860
:1000B000F1030008F1030008F1030008F103000850
:1000C000F1030008F1030008F10300081111000812
:1000D000F1030008F1030008F1030008000000002C
:1000E000F1030008F1030008F1030008000000001C
:1000F000000000000000000000000000F103000804
:1001000000000000F1030008F1030008F1030008FB
:1001100000000000000000000000000000000000DF
:10012000F1030008F1030008F1030008F1030008DF
:10013000F1030008000000000000000000000000C3
:10014000000000000000000000000000F1030008B3
:10015000F1030008F1030008F1030008F1030008AF
:10016000F1030008F1030008000000000000000097
:10017000000000000000000000000000000000007F
:1001800000000000F1030008000000000000000073
:10019000F103000800B583B000F044FA384B394A47
:1001A0001360394A1360394900E02146384B9942BF
:1001B0000BD20A684B6801F10C0488689842F4D9A4
:1001C0001168196004330432F8E72E4B1A68314B7A
:1001D0009A4200D0FEE72C4B1A682F4B9A42F9D175
:1001E000274B2E4A13602E4A13602E4B05E0002049
:1001F000106004329342FAD80B462B4A934204D241
:10020000194651F8082B5B68F4E7244B1B6813B9B7
:10021000234B1B6803B1FEE700F0EEFF694601A81F
:1002200000F022F9214C224BE41AA4100025AC4224
:1002300014DC204C204BE41AA4100025AC4213DC43
:100240000099019801F092F805461C4C1C4BE41AE9
:10025000A410002C0EDC284600F0E2F8144B53F8F2
:10026000253098470135E2E7134B53F8253098477E
:100270000135E3E7013C124B53F824309847E8E797
:10028000BABADECA0000002098010020F40300087A
:100290000C04000878563412325476989C010020E1
:1002A000980200200C0400081C0400081C0400082C
:1002B0001C0400081C0400081C0400081C0400089E
:1002C0001C04000808B5FFF765FF00BEFEE71EF03E
:1002D000040F0CBFEFF30880EFF309807146414A29
:1002E00010472DE9F04182B004468846124B5E6B00
:1002F0009F6B9D6A1B6B13F0020F03D00E4BDB6AE2
:10030000002B0CDB0D4800F0EBF8CDF800803B46ED
:1003100032462946204600F0FBF800BEFEE74BF6C9
:10032000AB6100F06FF90028ECD0034B4FF00042B6
:10033000DA6202B0BDE8F08100ED00E0241F0008A1
:1003400000BEFEE71EF0040F0CBFEFF30880EFF3D2
:1003500009807146244A10472DE9F04182B00446D5
:100360008846084B5E6B9F6B9D6A074800F0B8F8A3
:10037000CDF800803B4632462946204600F0C8F8BA
:1003800000BEFEE700ED00E0341F00081EF0040F81
:100390000CBFEFF30880EFF309807146134A104752
:1003A0002DE9F04182B004468846084B5E6B9F6B96
:1003B0009D6A074800F094F8CDF800803B4632462D
:1003C0002946204600F0A4F800BEFEE700ED00E05C
:1003D000401F000800BEFEE700BEFEE700BEFEE7CD
:1003E00070470000E302000859030008A103000859
:0403F00000BEFEE766
:1003F4000C780208000000209C0100200C78020800
:1004040000000010000000109C0100209C0200204D
:080414000000001000000010C0
:10042000FEE7000008B503460C4A12685AB10B4AB1
:100430001068033323F003030344094A934206D8A8
:10044000064A136008BD054A06491160EFE701F04E
:1004500065F80C2303604FF0FF30F3E7A0010020A4
:1004600000FC00209C02002001230360014B0B6074
:10047000704700BF040000202DE9F04385B004461A
:100480000F4643560BB10E461EE004252846214672
:10049000ABBE0446384605B0BDE8F08314F9011B35
:1004A00004AA1A4402F8101C0133AB42F6D304AA82
:1004B0001344002203F8102C4FF00408E94640468C
:1004C0004946ABBE8046761B002EE3D03546102E43
:1004D00028BF10250023E8E708B5FFF7CDFF08BDCA
:1004E0000FB400B583B004AB53F8042B0193802103
:1004F000064801F045F8002803DD01460348FFF7F0
:10050000EBFF03B05DF804EB04B07047A8010020D6
:10051000F8B504460D4617461E462748FFF7E0FF8C
:1005200021682648FFF7DCFF61682548FFF7D8FF00
:10053000A1682448FFF7D4FFE1682348FFF7D0FF04
:1005400021692248FFF7CCFF61692148FFF7C8FF06
:10055000A1692048FFF7C4FFE1691F48FFF7C0FF0A
:100560001E48FFF7BDFF29461D48FFF7B9FF1D4C88
:10057000E16A1D48FFF7B4FF216B1C48FFF7B0FF8D
:10058000E16B1B48FFF7ACFF15F0800F0AD115F4A3
:10059000004F0CD11748FFF7A3FF06991648FFF745
:1005A0009FFFF8BD39461548FFF79AFFEFE7314640
:1005B0001348FFF795FFEDE7081E0008181E000816
:1005C000281E0008381E0008481E0008581E000893
:1005D000681E0008781E0008881E0008981E000883
:1005E000A41E000800ED00E0B41E0008C41E0008B0
:1005F000D41E0008041F00080C1F0008E41E000899
:10060000F41E000883691A888A4201D000207047CE
:100610000268033A012A03D802338361012070473C
:100620000020704708B500F009F8024A024B9A60B2
:1006300008BD00BF0000000800ED00E0024B4FF0D5
:1006400000629A60704700BF00ED00E008B501222B
:100650000221104600F0BEFA01220521104600F0EA
:10066000B9FA01220621104600F0B4FA012207214E
:10067000104600F0AFFA01220821104600F0AAFA55
:1006800001220921104600F0A5FA01220A21104694
:1006900000F0A0FA01220C21104600F09BFA012381
:1006A00000220221184600F0DBFA01230022052176
:1006B000184600F0D5FA012300220621184600F062
:1006C000CFFA012300220721184600F0C9FA0123BE
:1006D00000220821184600F0C3FA01230022092154
:1006E000184600F0BDFA012300220A21184600F046
:1006F000B7FA012300220C21184600F0B1FA08BD18
:1007000038B505460C46425C02F001020221012088
:1007100000F0CCFB2A5DC2F340020521012000F06D
:10072000C5FB2A5DC2F380020621012000F0BEFB5A
:100730002A5DC2F3C0020721012000F0B7FB2A5D49
:10074000C2F300120821012000F0B0FB2A5DC2F3C1
:1007500040120921012000F0A9FB2A5DC2F380129A
:100760000A21012000F0A2FB2A5DD2090C21012000
:1007700000F09CFB38BD00002DE9F04100252BE086
:10078000174E6F007B194FEA430806EB080401225D
:10079000617816F8080000F01DFA01230022617844
:1007A00016F8080000F05CFA01226179207900F067
:1007B00011FA012300226179207900F051FA012217
:1007C000E178A07800F006FA01230022E178A07811
:1007D00000F046FA0135EDB2012DD1D9BDE8F08126
:1007E0000C000020012832D97047C4F1070249FAF1
:1007F00002F21A4D4FEA480606EB08014B00EF18CB
:1008000002F001027978E85C00F050FB012279796E
:10081000387900F04BFB00227979387900F046FBFB
:100820000134E4B2072CE0D90C4E4FEA480505EB41
:1008300008035C0034440122E178A07800F036FB24
:100840000022E178A07800F031FBBDE8F8832DE9C3
:10085000F843894680460024E4E700BF0C000020EE
:10086000F8B507460D4600241EE0012606FA04F1FD
:10087000C9B20020FFF7B6FF07EBC40357F83410E6
:100880005868C5F12002A5F12003E94000FA02F200
:10089000114320FA03F31943C9B2C943C9B2304620
:1008A000FFF7A0FF3444E4B2072CDED9F8BD08B549
:1008B00001220921002000F04DFB642000F076FCAD
:1008C00000220921104600F045FB012000F06EFCDB
:1008D00001220921002000F03DFB642000F066FCAD
:1008E00000220921104600F035FB642000F05EFC78
:1008F00001220921002000F02DFB782000F03AFCB5
:1009000008BD10B5044600220821104600F022FB65
:10091000204600F0EFFB10BD10B50446012208216F
:10092000002000F017FB204600F0E4FB10BD08B5E6
:1009300001220921002000F04DF9012300220921A4
:10094000104600F08DF900220921104600F002FB4C
:1009500001220B21002000F03DF9012300220B2190
:10096000104600F07DF900220B21104600F0F2FA4B
:1009700001220821002000F02DF901230022082186
:10098000104600F06DF902220521002000F022F946
:1009900005221146002000F0C7F90222062100209E
:1009A00000F018F905220621002000F0BDF902220E
:1009B0000721002000F00EF905220721002000F099
:1009C000B3F900F0ADFB00F0CDFB00F05FFBFFF7EB
:1009D0006EFF1120FFF795FF962000F0CBFB3A2029
:1009E000FFF78FFF0520FFF797FF2920FFF789FF0B
:1009F000012000F0BFFB08BD38B505462A20FFF7EF
:100A000080FF0020FFF788FF0020FFF785FF002010
:100A1000FFF782FF7F20FFF77FFF2B20FFF771FF9B
:100A20000020FFF779FF0020FFF776FF0020FFF797
:100A300073FF9F20FFF770FF2C20FFF762FF002459
:100A40000AE035F81400000AFFF766FF15F81400F5
:100A5000FFF762FF0134A4B2B4F5A04FF1D338BD63
:100A60000023022B6ED8F0B41DE000F58060C26850
:100A7000354911F823400121A1400A43C260324A9E
:100A800002EB8502D278012A50D0304802682E4904
:100A900011F825400121A14022EA01020260013340
:100AA000DBB2022B4CD81D46274A12F823108C08C3
:100AB0002748023450F8246001F0030189000F2711
:100AC00007FA01F126EA010140F8241012F8231078
:100AD0008C08023450F8246002EB8302577801F04E
:100AE0000301890007FA01F1314340F8241092789C
:100AF000012ABAD04AB915488268134911F823402F
:100B00000121A1400A438260B9E7104AD0680E4E25
:100B100016F82340012101FA04F42043D0609068C4
:100B200016F82340A14001439160A8E707480268F6
:100B3000054911F825400121A1400A430260AEE7B2
:100B4000F0BC7047704700BF18000020003C014017
:100B50000038014003490B68012202FA00F0034308
:100B60000B607047003C0140014B43F82010704778
:100B70002802002008B5054A536943F00103536178
:100B8000034B1B6803B1984708BD00BF003C014000
:100B90002802002008B5054A536943F00203536157
:100BA000034B5B6803B1984708BD00BF003C0140A0
:100BB0002802002008B5054A536943F00403536135
:100BC000034B9B6803B1984708BD00BF003C014040
:100BD00028020020034620B9A1F10D00C0B202286E
:100BE0000DD9012B07D010B4012B17D043B1022B24
:100BF00022D010BC7047C81EC0B20128F3D870477D
:100C0000144B1C6848000321814024EA010119604B
:100C10001C6802FA00F121431960EAE70E4B1C68D8
:100C200048000321814024EA010119601C6802FA8E
:100C300000F121431960DCE7084B186849000324E0
:100C40008C4020EA04001860186802FA01F10143A0
:100C50001960CEE700000240000402400008024094
:100C600070B4044620B9A1F10D00C0B2022806D923
:100C7000012C06D0012C21D044B1022C36D070BCFE
:100C80007047C81EC0B20128F4D8F8E72348856829
:100C90004C000326A64025EA060585608568A3402A
:100CA0002B438360436801248C4023EA04034360A0
:100CB000436802FA01F119434160E0E7184885688A
:100CC0004C000326A64025EA060585608568A340FA
:100CD0002B438360436801248C4023EA0403436070
:100CE000436802FA01F119434160C8E70D4884687E
:100CF0004E000325B54024EA050484608468B340AF
:100D000023438360436801248C4023EA0403436047
:100D1000436802FA01F119434160B0E70000024064
:100D20000004024000080240034620B9A1F10D0072
:100D3000C0B202280DD9012B07D010B4012B29D045
:100D400043B1022B46D010BC7047C81EC0B2012868
:100D5000F3D8704707290DD82E4C236A89000F203D
:100D6000884023EA00032362236A02FA01F119434F
:100D70002162E8E7274C636AA1F1080080000F2197
:100D8000814023EA01036362636A02FA00F11943B6
:100D90006162D8E707290DD81F4C236A89000F200C
:100DA000884023EA00032362236A02FA01F119430F
:100DB0002162C8E71848446AA1F108039B000F218B
:100DC000994024EA01014162416A02FA03F30B43AC
:100DD0004362B8E707290ED90F4B586A08398900D2
:100DE0000F248C4020EA04005862586A02FA01F18C
:100DF00001435962A7E7094C236A89000F20884004
:100E000023EA00032362236A02FA01F119432162F3
:100E100099E700BF000002400004024000080240C1
:100E2000034620B9A1F10D00C0B202280DD9012B53
:100E300007D010B4012B17D043B1022B22D010BC25
:100E40007047C81EC0B20128F3D87047144BDC6845
:100E500048000321814024EA0101D960DC6802FADC
:100E600000F12143D960EAE70E4BDC68480003211A
:100E7000814024EA0101D960DC6802FA00F12143D3
:100E8000D960DCE7084BD868490003248C4020EA8D
:100E90000400D860D86802FA01F10143D960CEE7B6
:100EA000000002400004024000080240034620B94E
:100EB000A1F10D00C0B202280BD9012B05D0012BE6
:100EC0001BD03BB1022B2BD07047C81EC0B20128EB
:100ED000F5D8704742B1012AFBD11B48436902FA99
:100EE00001F119434161704717484369012202FA31
:100EF00001F123EA01014161704742B1012AE8D1C1
:100F00001248436902FA01F11943416170470F48E1
:100F10004369012202FA01F123EA010141617047AC
:100F200042B1012AD5D10A48436902FA01F11943B5
:100F30004161704706484369012202FA01F123EA40
:100F400001014161C5E700BF00000240000402400A
:100F500000080240034620B9A1F10D00C0B20228EA
:100F60000BD9012B05D0012B18D03BB1022B25D07A
:100F70007047C81EC0B20128F5D870473AB1012A9F
:100F8000FBD1012303FA01F1144B99617047103131
:100F9000012303FA01F1114B996170473AB1012A1B
:100FA000EBD1012303FA01F10D4B99617047103128
:100FB000012303FA01F10A4B996170473AB1012A02
:100FC000DBD1012303FA01F1064B9961704710311F
:100FD000012303FA01F1034B9961CEE700000240BF
:100FE000000402400008024010B44409064951F8C8
:100FF000243000F01F00012202FA00F0184341F8EB
:10100000240010BC704700BF00E100E0084A1368EC
:1010100043F001031360064B1B6813F0020FFAD074
:10102000034B9A6822F003029A609A689A607047AC
:1010300000380240032826D81F2924D8032822D8A4
:10104000DFE800F0020A121A0F48036C012202FACC
:1010500001F11943016470470B48436C012202FA05
:1010600001F11943416470470748036B012202FAFA
:1010700001F11943016370470348436B012202FAEF
:1010800001F119434163704700380240184B1A6858
:1010900022F400621A601A6842F400721A601A6838
:1010A00042F480721A601A6822F080021A601A688C
:1010B00022F003021A601A6842F003021A605A68AA
:1010C00022F080025A605A6822F040025A601A6880
:1010D00042F004021A601A6822F038021A601A6894
:1010E00042F008021A601A6842F040021A60704723
:1010F00000300140C0B2054BD860044B9B6813F030
:10110000800FFAD1014BD86880B27047003001409F
:1011100008B5024B1B6803B1984708BD8802002040
:10112000024A136843F004031360704710E000E0C4
:1011300020F07F40024B586000229A60704700BF49
:1011400010E000E0024A136843F0010313607047A7
:1011500010E000E0024A136843F002031360704796
:1011600010E000E0024A136823F0020313607047A6
:1011700010E000E04FF47A5303FB00F020F07F40D2
:10118000094B586000229A601A6842F001021A6006
:10119000054B1B6813F4803FFAD0034A136823F011
:1011A00001031360704700BF10E000E0000120F071
:1011B0007F40094B586000229A601A6842F0010291
:1011C0001A60054B1B6813F4803FFAD0024A13687B
:1011D00023F001031360704710E000E0014B18603A
:1011E000704700BF6802002008B5024B1B6803B1BE
:1011F000984708BD6802002070470000134B1B7819
:1012000003B9704710B5124B124A1A600024124BF2
:101210001C70124B1C60124B124A1A600B4B1C7054
:101220001148FFF7E9FB22460E210220FFF792FE4C
:101230000E4B48F2DE621A604FF4FA60FFF778FF57
:10124000FFF780FF0A4B01221A7010BD3001002009
:1012500024000020300000207902002070020020CD
:1012600028000020501F0008D83701087402002011
:101270007802002038B5134B1B78012B21D0124B7C
:10128000124A1A600024124B1C70124B1C60124B45
:10129000124A1A6001250B4B1D701148FFF7ACFB79
:1012A00022460E210220FFF755FE0E4B49F2A612F0
:1012B0001A604FF4FA60FFF73BFFFFF743FF0A4B5A
:1012C0001D7038BD3001002024000020B000002037
:1012D00079020020700200202800002030A60008BB
:1012E000D8D70108740200207802002010B50E4BF8
:1012F0000E4A1A6000240E4B1C7001220E2102209F
:10130000FFF728FE01220C212046FFF723FE4FF4B1
:10131000FA70FFF72FFF22460C212046FFF71AFE36
:10132000044BFF221A7010BD240000207000002022
:10133000790200203001002010B5094C2168094BCA
:101340001868FFF7DDF92368074A1268934203D350
:10135000034B00221A6010BD01332360FBE700BF7E
:1013600070020020280000207402002008B5FFF75A
:101370004DFE00210220FFF75DFE01210220FFF754
:1013800059FE02210846FFF755FE0C210120FFF708
:1013900051FE0E210120FFF74DFEFFF7C1FEFFF7C2
:1013A0005FFBFFF7C4FAFFF7E7F9FFF74FF90122F8
:1013B0000C210020FFF70EFC012300220C21104617
:1013C000FFF74EFC00220C211046FFF7C3FD01225F
:1013D0000E210220FFF7FEFB012300220E21022036
:1013E000FFF73EFC01220E210220FFF7B3FD002291
:1013F00011460120FFF7EEFB012200211046FFF706
:101400000FFD002201210846FFF7E4FB01221146EF
:101410001046FFF705FD002202211046FFF7DAFB18
:10142000012202210020FFF7FBFC0620FFF7DCFD74
:101430000720FFF7D9FD0820FFF7D6FD2C49002033
:10144000FFF792FB2B490120FFF78EFB2A49022070
:10145000FFF78AFB0020FFF77DFB0120FFF77AFBF7
:101460000220FFF777FBFFF775FE2448FFF7B6FE73
:10147000FFF768FE0DE0224B00221A70214B1B780B
:10148000012B1FD0012B26D0FF2B2DD01E4B00226D
:101490001A801E4B1B78002BFBD0194B19781C4B64
:1014A0001868FFF7DDF9184A138801339BB21380DF
:1014B000642BEED1124B1B78272BDCD80133104A5A
:1014C0001370E3E7124A1168124A9142DAD1104BC5
:1014D000114A1A60DAE70E4A11680F4A9142D3D1D5
:1014E0000B4B0C4A1A60D1E7084B00221A70CDE76B
:1014F000FD11000875120008ED12000839130008EC
:1015000079020020300100206C02002078020020C7
:1015100024000020B0000020F0000020014B1868DB
:10152000704700BF3401002030B5141E05469BB043
:10153000184605DA8B232B604FF0FF301BB030BD0F
:101540004FF40273ADF80C3014BF04F1FF3323469F
:10155000029305934FF6FF7300910491ADF80E309E
:1015600002461E9B6946284600F072F8431CBCBF29
:101570008B232B60002CE1D0009B00221A70DDE74A
:1015800007B5009313460A46014603480068FFF773
:10159000CBFF03B05DF804FB340100202DE9F047D8
:1015A0008E689E4282460C469046994637D88A8974
:1015B00012F4906F31D0256809696F1A65690223AA
:1015C00005EB450595FBF3F509F101033B449D420D
:1015D00038BF1D46530530D5294600F07BFB064633
:1015E00050B90C23CAF80030A38943F04003A3810B
:1015F0004FF0FF30BDE8F0873A46216900F0F8FA75
:10160000A38923F4906343F08003A381266165617D
:101610003E44ED1B2660A5604E464E4500D94E4621
:1016200032464146206800F0EEFAA3689B1BA36097
:1016300023681E4426600020DCE72A4600F0A4FB55
:1016400006460028E2D12169504600F0F5FAC8E7C5
:101650002DE9F04F9DB0804603938B891D060C4603
:1016600016460FD50B696BB9402100F033FB2060A3
:10167000206128B90C23C8F800304FF0FF30C7E0D4
:10168000402363610023099320238DF82930302300
:101690008DF82A304FF0010B37463D4615F8013BD7
:1016A0000BB1252B3ED1B7EB060A0BD05346324681
:1016B00021464046FFF772FF013000F0A480099BED
:1016C000534409933B78002B00F09D8000234FF09A
:1016D000FF32CDE90523049307938DF853301A9315
:1016E0002F46052217F8011B4F4800F031FA049BE2
:1016F000D0B9D90644BF20228DF853201A0744BF21
:101700002B228DF853202A782A2A15D0079A2F46A3
:1017100000200A25394611F8013B303B092B4DD9F1
:10172000B8B10FE02F46B8E73F4A801A0BFA00F035
:10173000184304903D46D3E7039A111D12680391A4
:10174000002A01DB079204E0524243F002030792B1
:1017500004933B782E2B0CD17B782A2B33D1039B1F
:101760001A1D1B680392002BB8BF4FF0FF330237DE
:1017700005932E4D39780322284600F0E9F938B157
:101780004023401B03FA00F0049B034301370493FA
:10179000397827488DF8281006227E1C00F0D8F9E9
:1017A000002838D0234B13BB039B073323F00703D8
:1017B00008330393099B4B4409936DE705FB023201
:1017C00001200F46A6E700230137059319460A2595
:1017D000384610F8012B303A092A03D9002BC8D01B
:1017E0000591C6E705FB012101230746F0E703AB9E
:1017F00000932246104B04A94046AFF30080B0F19D
:10180000FF3F8146D6D1A3895B063FF536AF0998E5
:101810001DB0BDE8F08F03AB00932246064B04A930
:10182000404600F081F8EAE7D8770208DE77020840
:10183000E2770208000000009D1500082DE9F0473E
:1018400091461F468A680B69DDF820809342B8BF35
:101850001346C9F8003091F8432006460C4612B1F1
:101860000133C9F800302368990642BFD9F8003027
:101870000233C9F80030256815F0060507D104F1D8
:10188000190AE368D9F800209B1AAB4228DC94F8C7
:1018900043302268003318BF012392062DD404F18F
:1018A000430239463046C047013020D02368E568FE
:1018B000D9F8002003F00603042B08BFAD1AA36873
:1018C00022690CBF25EAE57500259342C4BF9B1A27
:1018D000ED184FF000091A344D451AD1002008E0E8
:1018E0000123524639463046C047013003D14FF0FC
:1018F000FF30BDE8F0870135C3E7E1185A1C3020FE
:1019000081F84300224494F8451082F843100233D2
:10191000C5E70123224639463046C0470130E6D0AC
:1019200009F10109D8E700002DE9F04301F1430C6A
:101930000C46097E85B06E291746064698460C9AD5
:1019400000F0B38022D8632936D00AD8002900F0ED
:10195000B980582900F0838004F1420584F84210D0
:1019600032E0642901D06929F6D1206813680506A0
:1019700003F104012AD51B681160002B03DA2D2224
:101980005B4284F843206F480A2239E0732900F053
:101990009D8008D86F2920D07029DDD1236843F0BD
:1019A0002003236003E0752917D07829D4D1782348
:1019B00084F84530644855E01368191D1B681160B0
:1019C00004F1420584F8423001238CE01B68116069
:1019D00010F0400F18BF1BB2CFE713682568181D21
:1019E0001060280601D51B6802E06806FBD51B883D
:1019F00054486F2914BF0A220822002184F843109A
:101A00006568A560002DC0F29580216821F0040171
:101A10002160002B3DD1002D40F08E806546082AC4
:101A20000BD12368DB0708D5236962689A42DEBFC1
:101A3000302305F8013C05F1FF35ACEB05032361CC
:101A4000CDF800803B4603AA21463046FFF7F6FE5C
:101A500001304DD14FF0FF3005B0BDE8F08339487B
:101A600084F84510136821681D1D1B6815600A065F
:101A70000BD5CA0744BF41F0200121601BB9226881
:101A800022F0200222601022B7E74D0648BF9BB229
:101A9000EFE76546B3FBF2F102FB1133C35C05F8D7
:101AA000013D0B460029F5D1B9E713682568616946
:101AB000181D106028061B6801D5196002E06A062F
:101AC000FBD51980002323616546B9E71368191D0A
:101AD00011601D6862680021284600F039F808B1DD
:101AE000401B606063682361002384F84330A7E7EC
:101AF00023692A4639463046C0470130AAD02368B8
:101B00009B0713D4E068039B9842B8BF1846A3E72D
:101B100001234A4639463046C04701309AD0013544
:101B2000E368039A9B1AAB42F2DCEBE7002504F171
:101B30001909F5E7002BACD1037884F8423004F1A1
:101B400042056CE7E9770208FA7702080000000016
:101B500001F0FF01102A2BDB10F0070F08D010F85E
:101B6000013B013A8B422DD010F0070F42B3F6D162
:101B7000F0B441EA012141EA014122F007047FF07B
:101B800000070023F0E80256083C85EA010586EAD2
:101B9000010685FA47F5A3FA87F586FA47F6A5FA0E
:101BA00087F68EB9EED1F0BC01F0FF0102F007021A
:101BB00032B110F8013B013A83EA010313B1F8D1C5
:101BC0000020704701387047002D06BF35460338A6
:101BD000073815F0010F07D1013015F4807F02BFDF
:101BE000013015F4C03F0130F0BC0138704700BF30
:101BF00010B5431E0A44914200D110BD11F8014BAB
:101C000003F8014FF7E7884210B501EB020307D84C
:101C1000421E99420AD011F8014B02F8014FF8E731
:101C20008342F5D98118D21AD34200D110BD13F8DE
:101C3000014D01F8014DF7E738B50546002945D0BB
:101C400051F8043C0C1F002BB8BFE41800F0D2F888
:101C50001F4A1368104633B9636014602846BDE814
:101C6000384000F0C8B8A3420CD9216862189342EA
:101C700004BF1A685B68636004BF52182260046086
:101C8000ECE713465A680AB1A242FAD91968581803
:101C9000A0420BD120680144581882421960DDD15E
:101CA000106852685A6001441960D7E702D90C23C2
:101CB0002B60D3E7206821188A4204BF116852685C
:101CC000626004BF091821605C60C7E738BD00BFCF
:101CD0007C02002070B5CD1C25F0030508350C2DC5
:101CE00038BF0C25002D064601DBA94203D90C2381
:101CF0003360002070BD00F07DF8214A1468214651
:101D000091B9204C23681BB9304600F063F820607D
:101D10002946304600F05EF8431C24D10C23336082
:101D2000304600F068F8E4E70B685B1B18D40B2B17
:101D30000FD90B60CD50CC18304600F05CF804F1A0
:101D40000B00231D20F00700C31AD3D05A42E250E3
:101D5000D0E78C424B6816BF636013600C46EBE71C
:101D60000C464968CCE7C41C24F00304A04205D00B
:101D7000211A304600F02EF80130CFD02560DBE785
:101D80007C02002080020020F8B5074614460E466B
:101D900021B91146BDE8F840FFF79CBF22B9FFF713
:101DA0004BFF25462846F8BD00F026F8A0420FD28A
:101DB00021463846FFF78EFF05460028F2D031460F
:101DC0002246FFF715FF31463846FFF735FFE9E7B2
:101DD0003546E7E738B5064C00230546084623603C
:101DE000FEF720FB431C02D1236803B12B6038BDF2
:101DF000840200207047704751F8043C181F002BE4
:101E0000BCBF0B58C0187047537461636B20667277
:101E1000616D653A0A000000205230203D202025E7
:101E20003038580A00000000205231203D20202583
:101E30003038580A00000000205232203D20202572
:101E40003038580A00000000205233203D20202561
:101E50003038580A0000000020523132203D202541
:101E60003038580A00000000204C52203D20202528
:101E70003038580A00000000205043203D20202523
:101E80003038580A0000000020505352203D2025D1
:101E90003038580A000000004653522F4641523A4B
:101EA0000A0000002043465352203D2020253038B0
:101EB000580A00002048465352203D202025303843
:101EC000580A00002044465352203D202025303837
:101ED000580A00002041465352203D20202530382A
:101EE000580A0000204D4D464152203D20253038F3
:101EF000580A00002042464152203D20202530381B
:101F0000580A00004D6973630A000000204C522FEC
:101F10004558435F52455455524E3D202530385860
:101F20000A0000005B486172644661756C745D0A6A
:101F3000000000005B4275734661756C745D0A00B9
:101F40005B55736167654661756C745D0A000000DE
:101F50007C797D85908D8379767E88898381807D6B
:101F60007B82837D7372798A907B67617586978C9B
:101F7000817F7E7B768088938C80777B8287868446
:101F8000827D7D7F86867D6D707981807979788488
:101F90007E81817F84817F7F898584828182837F26
:101FA000818584807D82888B7F6E6566728A969338
:101FB0007D706E787E7F7F879290816F76828F8D25
:101FC000807C80847F7B8088938C7C5A506687A637
:101FD000A18C7568696D6E7B8BA7A18C6C66728312
:101FE00092898A878475767C8B95917B5751698716
:101FF000A49E92836E5D5B707B99A099897D726CC3
:10200000727C8D9591817879818A8C8367607175F6
:1020100086899B99936F4C5E74919C92838F8A788A
:10202000676B76909B88807E80868C7C62647D8FD7
:10203000826E7C94A38F6D4D618095968787909278
:10204000736468788F97878484838880625E7D91CB
:1020500094776D7B9D998564536B838F8E948A9260
:102060008C71656D788A9489878B8780605E7592A4
:1020700093887B7085828879736173848E96898753
:102080008F90746A6A778C92858D9087665E6C8972
:102090008D8987857D73777C83706A7591958D7B3B
:1020A000839190796B6E7F8C86818C90756F6D7B40
:1020B0007E88879288786B74827E716B87928F811D
:1020C0007D8590867A737B7D857F83847E7C7F7916
:1020D0007983878E867D6F747B7F7575808F84840E
:1020E000828486897E7B7F7D817D7C7282838A7CEF
:1020F0007E7C8B86867C727678787780808F8582EE
:102100007F847F89847E8082807C736D82878881D2
:10211000818389827F7A76787C76757A7F8E8C85CA
:102120007F828287847B7D82847B727081848683B8
:10213000888987807A7873787A7C797B7C8A8988A9
:1021400081828489837F7D7F7E75767B807F878592
:102150008D8888807D726F737B7C7A7A808D88838E
:102160008083888A7F7D7E807976767C7F83888A6B
:102170008A888A877F716A717A7A777480918D8371
:102180007F838C8A827879767A7B79777C868C8D4E
:10219000888A8D8A80736972767873737F8E8D8951
:1021A00084868B8C837970717A7A77767E878E8934
:1021B0008A8B8D898379757473726F737E86878637
:1021C000868B8F8D857C72787B7776767980868614
:1021D0008989888988827F7C79767474797D818108
:1021E0008381858686827F7F7E807E7D7A7B7D82ED
:1021F000828281828282807E807F7F7E7F7E8181DB
:102200007F7A7B7E828381808081807F7C7D7F82DC
:102210008180807F7F7F7D7E7F82828281828381B9
:102220007E7C7C7B7C7C818384807F7E7E7E7D7FC8
:10223000818382807D7E7D7E7E8083868583818191
:10224000817F7D7B7B7B7E7F8182827F7E7D7D7FA8
:10225000808180817E7E7C7C7E8183848483858274
:10226000807F7F7F7F7D7C7D7E807F7E7E7F7E7E88
:102270007E7F818180807E7E7F7F7F7F818283825F
:102280008081828281807F81807F7E7E7C7C7C7C5D
:102290007D7C7D7E81838382807F807F7D7E7F8049
:1022A0008180808182828282828282817F7D7C7B2A
:1022B0007B7A7B7B7E8284838280807F7D7E7F8031
:1022C000808080807F8080828282838383817F7D03
:1022D0007C7B7D7D7C7D808082817F7F7E7D7E7E1C
:1022E0007F8281817F7F7F80818282828181817FE5
:1022F0007F7F7E7D7E80818081807F7E7D7D7D7DF4
:102300007E7F7E80828180808082828180817F7ECC
:102310007E7E7F808181828081818281807D7C7BC5
:102320007B7C7D7F7F818080808281828382807FB1
:102330007D7E7F7E80818180818181828281817F9B
:102340007E7E7C7D7E7D7D7E7F807F7E7F818180A5
:102350007F7F7F80818182817F7F81807F8081817B
:10236000817F80808180807E7D7E7E7D7C7C7C7E86
:102370007E7E7F808081828282838281807E7F8058
:102380008181807E7F80818281807F7F7D7D7D7C59
:102390007A7C7D7F7E7D7F81828382828381818042
:1023A00081818382807E7E7F8082817E7E7E7E7D33
:1023B0007C7D7D7E7D7C7B7D7F8081817F80818136
:1023C0008483838383838180808183817E7C7D7D00
:1023D0007B7C7E7C7A7C7D7E7E7E8083817D7D8021
:1023E00082858583828382828380828381807C7BD5
:1023F0007C7E7E7C7C7B7A7C7F7F7E808282807FFD
:102400007E8083818384848281838081807E7E81BB
:10241000807B7C7F807E7F7C7C7E7D7C7F7F7E80DE
:10242000827F7F81818588837E8382807E7E7C7FA0
:10243000807F7F7E8081807D807B777B7F7B7A7FC2
:102440008284827F8187858688817C7F7F7E808071
:102450007E7F7E7E817D7C878375777B777A8280A5
:1024600080838487848085878282837D7A7D7E7F56
:10247000817E8181777B837C7A827C75797E7E8484
:102480008486888283868383857E7C7F7F7C7E7E34
:1024900080847D787E7F767E807777808181828060
:1024A00086888885828085827F7F7E7C7E807D8114
:1024B0007F7B7C847A757B7D7A7C7E7C8285888339
:1024C0008383848686827F807E7F7E7F7E828381F7
:1024D000797A7E77797D7B767D7E7E80838688881B
:1024E00082838381818583807E7D7E7E83837E7CE3
:1024F000827D73767E7A7A7D7E7C7F8283898684F4
:1025000086837E81817F838584817C82817C7E81BC
:102510007B71797C787A7F7E7F827E8283838A89D1
:102520007E7E827E818483838283847E7C7E8079AA
:10253000757879777D827C7E808485807D878681B1
:1025400086827D7F837F818188847D7D7E7D797A8F
:102550007A7B767D7D7D7F8285828183837D828586
:10256000817F8384827E7F837E81827B7D7D797D76
:1025700079797D7F7D818180848385817F80827F61
:102580008084858282857D787E7D7B847C787D7D5C
:102590007C7F7D7D837F8081818387827F7F7E8337
:1025A00085817E8485817D7E7278807A7C81807C45
:1025B000817B7F7F8285827C818481868380818408
:1025C0007E7E818581847D737C7B767E7F7A7E8131
:1025D000837E7C82857E82847E82888480828381E1
:1025E00080827B7D847D7C827677817E777B827F13
:1025F0007F83837B8086827E8484838584817D84BF
:10260000837B7D7D778282787D827979817C7B81F5
:10261000877D808382808384818184867D82847D9E
:102620007C81787A847C76807F79817E797E837ED6
:10263000818383818284828283837D7D85807C8285
:102640007D767F83777E817A7A7E7E7E80818380AD
:102650008382838484828382807E7F7F7C807E7875
:102660007A857E7A7D807B79807E7A82857F84837D
:1026700084868581838282827F7D7A7B807E787C5E
:10268000807B79877F778282757C857F8486818352
:10269000878488837F81817E7E7B7D7E7B797C7D44
:1026A00076807F777D887E7E837F7E85828187832B
:1026B00086878381827F817C7F7F7A7A7C7B787D2D
:1026C0007D7B7A7E7F7F82878284838083858284FC
:1026D0008681808382797D817D7C7F797D7C777D19
:1026E0007B767E827F858482858482877F808683D5
:1026F0007E81857C7C827E7880797D83787A817604
:1027000078827C7F838488878187857F84847C7CB2
:1027100083807C7F837B7C7C797D7A7983817B7EDF
:102720007C7C81848585838686818386837E7F7E8B
:10273000787B84827B7E7C777E7B797C7E7E8181C8
:102740008184858480828685828483827F827D786D
:102750007D817879847879817A77807B7C82817FAA
:10276000848886888083828282837E82877C7A7E48
:102770007875867B72807D768581767F8580808482
:102780008488848583808087807B84807D837F7339
:102790007D7D727E81717A847B7C87888180828452
:1027A000828687847E83827C8085808082787D7E1D
:1027B0007677837776827F777D8881838789818129
:1027C00081838183847F7C82807B827E807E7B7418
:1027D0007D7C767D847D7784847F838A83858783EF
:1027E0007F7F80827D7F837C7E7E807C7D7A7A7F06
:1027F0007A7780837A7F86817E88848085858383CB
:1028000082817E7A7E7F7F7E7F7C7A7E7C7C7F78F1
:102810007B837E7984897F8485808286828283819E
:1028200084807E7D7A7A807F7A7C7D79817E7580D6
:10283000877E7A837F83898582838182837D81837A
:1028400085827D777C7D7B7D7C747C897B7A8484AA
:102850007982817C81888683817F89847F7D817F65
:10286000827F7E7B777D7F78738380797F877F808F
:1028700087817B7E848585808585817D82817E7C44
:10288000817F757C827E737F827A7A86827A848960
:10289000837D817F827F8387847D80857C7681852F
:1028A0007679817C787B83827B81887E7A83867F40
:1028B000828481807D8085817E8682737A86797527
:1028C00081807A7C7E817D7D88867D81877F818302
:1028D000817F828182837A7F877D758079737F8211
:1028E000797D7E82847E8185807D878281838381DC
:1028F000847F7F85807C837E75827E707681777B06
:10290000827F85838083857F83827F83847F8384A6
:102910008082857E817F77818075777F797B7E78E5
:102920007E84828588818084807E7F7E8488848086
:10293000827F8281797C7B787B807A79807D7C82C2
:102940008080858581818382847D7C82838184856A
:1029500083807C7F79767C7F7B7B7D7E7C83817DA1
:10296000808486817F7F85837E7E82828284827C52
:102970007E868177797A777F807E7B8082807D807A
:1029800084838181817E7E7E85848280847E7E8533
:10299000817C7E7F787E7C7B7B7F82827B7C848354
:1029A0007F7F8281827D7E7F828488827F837F7B1E
:1029B00081827B7F807E79797D85817D7F807D7E30
:1029C000807F8080827F7E7E83808386807C808003
:1029D0007D7F808282807E838280827F7A7D7E7B03
:1029E0007A797C82807F7F7C7E81817F817F7F81FD
:1029F0008181838284878382858581807F7B7979C9
:102A0000797E7C7A797C7D7D7F7F7F7C807F7F83F0
:102A10008584848483818687838485827F7E7C7E8F
:102A20007D7A777B79777B7B7B7C7D7E7F808282E2
:102A3000838686828284828183848383817F7E7C75
:102A40007D837F797C7C7A797A7D7F7D7E7F7D83B3
:102A50008681818381808282807F82817F7E7C806B
:102A600082818080807D7C7C7F7E82827D7F82806F
:102A70007F837F7C7E7F7E7D7F7E7F7F7F7D7F8269
:102A8000818384827E80807C7E8081818681808437
:102A900084807D7E7D7E7C7B7C7C7E7F7E7E7D8057
:102AA00081817E7F8182817E7C7D83848381838717
:102AB000878280807F7F7F7C7C7D7F7F7D7C7E7E28
:102AC0007D7C7C7D7D80817F7C7E81818182838411
:102AD00087868381818082807E7E82807F807E7EE9
:102AE0007D7E7A7B7D7F7C7E7E7B7C7E7F7E82830B
:102AF0008383838182817F7F8381838281828283BA
:102B0000807F7D7F7D807D7C7C7E7C7C7C7C7E7EEE
:102B10007E7D8080807E807F8081848485828182AA
:102B20008382828280827F7E7E7F7C7E7E7D7C7DB2
:102B30007E7D7C7D7C7C7B7E7F7F808082858381A7
:102B40008481838481818382808180807F80807E74
:102B50007E7D7B7E7D7A7B7D7D7E7F7E7D7F81809D
:102B600080827F7E83838182828182828181838150
:102B70008081807E80817E7E7D7D7C7B7D7B7B7F76
:102B8000807E7E7F7D7F808081807E80838080824A
:102B900083818282808484818281807F7D7C7D7C30
:102BA0007C7D7F7E7B7B7E7E7F7F7F7C7D81807E48
:102BB0008083828281828485828285817F817F7DFC
:102BC000807D7F80817D7C7C797D7C7C7E7F7A7935
:102BD0007D80808384817F828484878782818481D1
:102BE0008184827E80807D7F7D7A7A77787B7D7913
:102BF000767B7F81828384838284868585868381B8
:102C0000838382838280807878807D76797B7478F4
:102C10007E7B7B7F83818386868484878682828590
:102C200085807F7F7D817E7B77777A7B797A817ED5
:102C30007B7E838484848885818386807E83808074
:102C400081827D7D7E7B777A7F7D75767B7D7F83BC
:102C5000858283828A898283888482837D7C808046
:102C60007D7A7C7F78777D7A717C837A787D8287A4
:102C70008B8686868487888383848082837D7B7A23
:102C8000787E78747C7D75797D777B817E80878581
:102C9000888D88848481838584858580807C747E0A
:102CA0007C74777C7377817A7A80827E8182888B4C
:102CB0008986848485827E7E80828485797B7B760A
:102CC0007A7D7174827E7A7F808288838482838712
:102CD0008B847F808286817C787F7B807F74777F06
:102CE00077757E7A7A84878183848C8982828583D2
:102CF00083827F8283817C8175777F78757D78730D
:102D0000807D787F8582868789888686858383858E
:102D1000807F8081808676758176717D7B717E7EF5
:102D2000777D868384858687868687838184817F75
:102D300081807E877976857B717E7B6E7D817979D6
:102D40008182878584868586868480838180817B55
:102D50007F887977867872847F6D79817D7F8081A5
:102D60008482868A8283888580837E7F817B80823D
:102D7000747A8C7A70817F6F7A827A7C8185858083
:102D8000858C84838683818783807C778282737538
:102D9000877A738382707A847B787D858781848A41
:102DA00082858A857F8482827D7C84807579827623
:102DB0007481847379837F797E85817C858A81841F
:102DC0008A85818582817C7E827B747E8277778012
:102DD00081767A84847A8088827B84887E828781E7
:102DE0007E8787807A808179757F7C777A7F817A08
:102DF0007C83827A848A837E88867F7F86827D84B4
:102E0000857B79868178767F77757A7D7D7A7D86F8
:102E1000837B868883818985828288817C8386788A
:102E200078887E797B837575797C78777C837F7BE6
:102E3000888882828C83828189827E8488797A895B
:102E40007B777D8777767D8077787D7D7A7A8684BB
:102E500080818B86838287817E8487797C8A7D7757
:102E60007C857A777F84767A827E797E837F7F7F86
:102E70008783828488827E8283787E897D7A7D833F
:102E80007A757F867478877F7781857F808184815A
:102E900080828681818684767E857A7A80847B743E
:102EA0007E877576877F7585857C81858483818320
:102EB000857F7F838379848479787F827C767E881E
:102EC0007578887F7285867B7E8684818384858001
:102ED0008283817683857C787F827A777F87747717
:102EE00088827284877B7D87847F8285857D8384C9
:102EF000817683817A7981847978808675798781F2
:102F00007385887C7D88847E8186857C83837E76BC
:102F1000878078788082797A7F86787B86837483CD
:102F2000877C7C88867F8288857A83867C75898089
:102F30007578807F797C7F837A7B83847883887DB2
:102F40007886867E8189867D84897C748882747780
:102F5000827C767D817F7B7D82837981877F7A8782
:102F6000857C7F88847C848B7F7588827377867D5F
:102F7000757D817B7A8182847B80857F7B87857A62
:102F80007E87837C82897F7689857374867E747E52
:102F9000837A7A827F807F8387827B85857C7F8628
:102FA000817D83877E7585887774847E727D85793F
:102FB0007A857F7C7E8184837E87867E8087817E02
:102FC0008387827883857672877F717E8575768622
:102FD000807F818181807C87867F8288817F8485D4
:102FE000817884887871867E717E877776857E7A0F
:102FF0007E8482827E85837D8188837F85858279B8
:103000008387797186816F7D877A7587817A7E83E0
:103010007F7E7E86847E8186807E8683837A828799
:103020007B708584707B857B7587827B7E85817EC6
:103030007C83837D8286827E8784817A7F867D7190
:103040008285727C877D7384867B7D85827D7F838C
:10305000837C8084837D8886837D7E857D717C886A
:10306000727987817382887C7B84837C7F82837C76
:103070008084847C8486837F7E887F727886727663
:103080008584767D88807B83867B7D82827C80843C
:10309000857E8285847F7D8981747A87747483823A
:1030A000767A88837B83887C7D82837A7E82847F24
:1030B0008386857F7C8881767A8877738083787829
:1030C00086847A7F8B7F7D82857C7D81827F8185EE
:1030D00085817D88827878857C737D847D75818506
:1030E0007B7B89817B82877F7D8081807F838381D9
:1030F0007C88837C788182777A82807580877C77F0
:1031000088837A808580808382807F8383807A85AC
:10311000837D797E817A7B8382767D8680778584C4
:103120007B7F857F7F8384827F8383827A83827C97
:103130007B7E7F797982847A7B84827683867A7CAF
:1031400085817D818483828584817A84847B7A7D74
:103150007F7B7980847B7C8385787F867C79838282
:103160007C8184827F8586847B83857B7A7D807B5E
:10317000797E837A7C83867A7E877F7981847A7E62
:1031800083837D8386867A84877A7C7E7F7A7A7E43
:10319000867B7A82857B7E867F797F867D7C818631
:1031A0007C81868679848B7B797D807A7A7C867C2B
:1031B0007B82857B7C86827A7C867F7C7F877E8013
:1031C000878776818D7C787F82787A7B827B7C840E
:1031D000857B7B85837B7B847E7C80887E7F8889E2
:1031E00078808E7C788082747C7F82797981847FFC
:1031F0007D85837C7B857E7A7E877E7F87897A82C8
:103200008F7C748287737B80807A7E81807E7D83D1
:10321000827C7C867F7B7D857D7F878679818F7FA1
:10322000758387727B837D7A8182807E7F81817CBA
:103230007C837F7B7F847C7F85867A818C7E74868D
:1032400086717D877D7882827E808380817D7D808E
:103250007F7C81837E8084847C848A7D7487837074
:103260007D877B7985827B7F867F7E81807D7D7C6B
:103270008080808184827D84877D77887F737E864D
:10328000797986847B7E887F7A81827A7E807E7C53
:10329000828283818085847A7B887D778084797C33
:1032A00086847B7D8A81768184787C817D7A828325
:1032B000827F8286817A8086787981827B7E86850C
:1032C0007F7D89837783867578837E798182807D0F
:1032D00083877D788584757C817E7B808384807FF5
:1032E0008787797E887B78837E788084807A858AD8
:1032F0007C758781737E827B7982838581828486D7
:103300007D7D847E798181797E83817985887B76D4
:103310008B81737E847978838081828583828180AA
:103320007F7F7A7E7F7D7E83807A86867B788980A8
:10333000777F837B7982827E8087857E82857D7E92
:103340007E7C7A7E7D817D7D87857B7D867D7B7F92
:10335000817C7C81857D7F88867D81887E7A828163
:10336000787C7E7E787D85817982877A7D837F7B7C
:103370007E8083807F88877F7F85827A7D857B7949
:103380008081757D857E7681897A7C86827880824F
:103390007F7D82858780828481817C7E7F7C7C8327
:1033A000767C847F757F867C7B8386797E85837B34
:1033B0008185837F83887F7C848079807E7C778011
:1033C000817E797F847B7D82827B8282837E7F8304
:1033D000877E8086827B7F877B798282707F847BF9
:1033E0007680847B7A8685788287807E85828381D9
:1033F0008084837E7E80807D7B837979817F7678EF
:10340000847D7A80877D7E86877D818684808085A5
:1034100082817F847B7E827E748081777B797E7ED1
:10342000797E867B7F86857F848384838182828088
:1034300081847F807D837C77827E757A7B7D797ABB
:10344000838379848B7E808982808582807F81815D
:10345000827E8582797D8679787F75767D787B829C
:103460007B828784808C828185847D7E837F7F7F41
:1034700085838378838878748475707E787B7C7D7F
:10348000858B7C898F7D808B7F78807E7D7C7F8320
:10349000877F81887F7D7F7D72767876787A7F8559
:1034A00086868B8A878484807C7B7C7B7D7F7F86FD
:1034B00084808B897A7E8871697C756F777C84883B
:1034C000838E9388858A827979797B7978808880E0
:1034D000828F8C8181817D6C6878746C758486871D
:1034E0008E92928886887C74777A737A7D848583BD
:1034F0008E8D86898B786E6B6F6B6F717B838791F6
:103500009490908F867D76747274757E8387869092
:103510008D88858E887863657869667885808E94D5
:1035200094918B8688776C72757279828B8E879274
:103530008E84818A8177606077756B76888C948DB4
:103540009091877C81756C70767981878F94898D55
:103550008A7D7C857B7164697679747D8B8B8F9095
:103560008684857D787372767D7C8791918E88873D
:10357000857A757E7A726E76777B817B848C89867C
:10358000847F807D78797B798185858E908C81811F
:103590008179747A7C7A717C817882807D85887E5D
:1035A00083807E817D7B807D7E8884898D8B7D7FFD
:1035B0007E79767A7C7E7A77867C7C7C7F81847C3F
:1035C0007F84818180827F807C868486888A7D7AE0
:1035D000817B7579847F7C78878177767B7E817E1D
:1035E0007C878686818480817B82848284847E7BC2
:1035F000827C7B798685807581857671757A7F83FB
:103600007B878B8A84847F817D7A818382828079A3
:1036100084817C7B8685857876837B7071787C89D4
:1036200080838C8D8484807D7E787E828382847981
:1036300083877E7782878580737D7F756E777887B5
:103640008781878E8981807B7D787D828582857E5A
:103650007E86847B7A8687867576807C7074768099
:103660008A838789888382797C7A7A7F8587858136
:103670007B86847F7881868980727A7D787473777F
:103680008A8784888883827D777C7A808287868512
:10369000797F8681797C8688897479797778777063
:1036A000818C878983868481767D788081878884F0
:1036B0007E788481807885838F7B7578767977733F
:1036C00076898790838681867A7C787E83838882D8
:1036D00084768281827785818D8176756F7C78771B
:1036E0007485869484878286807D777982838B7FB8
:1036F00086787F808579827F8A8175756D7A787901
:103700007683849688868185837E777A81818B8390
:1037100085788082837A827E897F75726C787C7AE4
:103720007580879389888183808179797D878A8470
:10373000877A7E84837C817C887F756F6F777A7CC3
:103740007B7F878F8D857E84817C7C7E7C8687874E
:10375000867C7B86817F807E817F79716F767C7BA2
:1037600079808C898B868380817D7E7A808785862F
:10377000847C7B8481857C7F808274717377787D83
:103780007B80888B908283848279807A808286860F
:1037900082767E868282807E7B8476726E777C7E65
:1037A0007786878A8C8A837F81807D7982828683EF
:1037B00081787E818A827E79838074727274787F48
:1037C0007F8282928B8784867E7E7B807E818686C6
:1037D0007C798384858181797F7C7C7070757D792B
:1037E0007E848789898B848382817A7C81878280A9
:1037F0007B7E8087877F757E82807A757676777EFE
:103800007F7C878686828485867C7F8081848A7E91
:10381000767D8687827C7B807E857B78747C7777DB
:103820007A8385848482818187837C7B8585817B83
:103830007F7E8486837A7F84887F76777877787BAB
:10384000777E848A848081878180807F7F85807C69
:103850007D82868580808584847E7B70767877748F
:103860007B7F848584857E8287847D81817D7C8247
:103870008383848382838385817C77757574767A6C
:103880007D7E848583828585828382807C7D7F8026
:1038900085858481838687807E7B76747775747B4B
:1038A0007F838282838381858883827F797C818202
:1038B00084848283848684817C7878777476797B2B
:1038C0007F8184848082828287877F7A7C7F8283E3
:1038D000858281838687847E7E79777A7677797A06
:1038E000807F8083827F84858383827E7B808284C5
:1038F000828382818184847E7F7C7A7979787B7AE5
:103900007E7E7F7D7F84838185837F8282828082A9
:1039100082827F81827F7F827F7A7D7B79797C7DC5
:103920007F7D7D807F818583808283827E8084808D
:103930008182817D8285827B7D7F7C7B7A797B7EA3
:1039400080827D7D8285818080838181817D7D846F
:10395000867F7D80818082807B7B7E7D7A787D8280
:103960008080807F7F8284807D82847F7D7F818252
:103970008284817D81837E7D7D7D7D7D7C7D7E7E5B
:1039800082827F7F81817F7F81818081807D7F8531
:10399000848082837F7E7F7E7C7D7E7D7D7E7F7F37
:1039A0007F80817F7D7F817F7F82817F7F81838117
:1039B0008185817E807E7C7E7F7E7E7C7F807F7E17
:1039C0007F817E7E7F7E7E8182807E8383808183F5
:1039D000818182807E7C7F7E7E80807E7E7F807FF4
:1039E0007F807F7E7B7E80808082808181828281D9
:1039F00082817F7E807D7F7E8081807E7D7F7F7FD4
:103A000081807C7E7F7B7E8382807F8380808182B9
:103A1000817F817E7D7D818282837F7B7A7A7F82B6
:103A20007E80817C7D82858482807E7E8082817F93
:103A30007E7C7B7C8081848180817D7D7D807F7F99
:103A40007E7C7D8184838483817F80808180807D72
:103A50007A7C7C7D7F8283817F7D7E7F8083817D78
:103A60007B7E8183848382807E81818082827D7956
:103A7000797B7F7F8184817C7C7D808485817E7D54
:103A80007D7F828684807D7E7F808283827E79773F
:103A9000797E8183837E7A7B7C818886807E7E7D31
:103AA00080838384817D7D7C808684807E79767A24
:103AB0007E8184817D7B797D83858684817D7E8204
:103AC000858381837F7A7A828383827C76767C7F0A
:103AD0008282807E797A8084848486817C7E8385DC
:103AE0008583827C787C7E8083817B78777C8386EB
:103AF00082817C797C7E838585827F7F80828488B9
:103B000086807E7C7A7B807E7B7B797B7D828485D0
:103B10007F7C7D7C7E818583818082808186878396
:103B200082837C797C7D7A7A797B7D7F81838180B9
:103B3000807F7E7F8183828083818184878382836B
:103B4000837D7C7B7879797A7B7E7F81808181819E
:103B500080807F8081818280828386848485847F47
:103B60007E7C7677797A7A7D7D7E80828282818181
:103B7000817E7F8183808183868383878582807D28
:103B80007775767A7B7C7C7D7D7E82858380828062
:103B90007F7F81818282848382868785837F797615
:103BA00075787A7C7B7B7C7E8082848583807E7F37
:103BB0008280808285838183858585807C76747907
:103BC0007C7A7B7E7B7B7E8384848384817E7E8102
:103BD000818284828284858384817D7875777B7BF2
:103BE0007B7C7C7C7F8082848584818181817F82D3
:103BF00084838082848684817E7975787C797A7CDE
:103C00007D7C7E7F838283848380808182848282A4
:103C10008383838583827F7B767879797A7B7C7CCA
:103C20007F8081818483817F82807F83858483817B
:103C3000848681817F7B787B7B79787C7D7D7E80AB
:103C400082828283827F8080818182828582838456
:103C500084817F7B79797A7A7A7B7C7F808081838B
:103C6000828482807F7F8082818282818685838137
:103C70007E7B7A7979797A7B7D7E8081828382836B
:103C80008182817F7F8180838381828486837E7A23
:103C900078787A79797A7D7F81828284838382823F
:103CA000818081818081828283848582807D787514
:103CB000777978797C7F8083838583828383807F13
:103CC000828280808280828387837F7D7B77767605
:103CD00077797B81808282868483838481818281DB
:103CE000807F827F8082878282817D7776777576FA
:103CF000797F818382858484838582808283807FAB
:103D0000817F7F80858381817F7976777573787EE7
:103D10007F82848584838486838184837F80837F7C
:103D20007E8085818082817A78787573767C7D7FCC
:103D3000858684838485838285858280817F7F8058
:103D400084827F82817E7A797873737A7A7C8185A6
:103D500084848584848185868281837F7C7F84813D
:103D60007F82827F7C7F7A75757977787E81818387
:103D7000858684818586848284817E7E81827F801F
:103D8000827D7E817E78787A79777A7D7F7E838561
:103D900082838586848485837F7E80807E80827E08
:103DA0007D80807C7D7C7B797A7C7A797F81808242
:103DB000848685868686828080807E7D807E7D80EA
:103DC000807C7C7F817C7B7E7C797B7D7B7D80831E
:103DD00084868789848484817F807E7C7C7D807DCD
:103DE0007D7E7F7E82817E7D7C7C79797A7D7F83FA
:103DF0008588878686878381817C7C7C7E7B7D7FAE
:103E00007F7C8083838180817B787879777B8085D4
:103E100085888888878586817D7B7D7B7B7C7F7D8F
:103E20007E8182818386817C7A787476787C7F85B6
:103E300086888887878783807E7B7A7C7C7C7D7F71
:103E4000818181838583817E79757675787D808493
:103E5000878687888686837E7C7D7B7B7C7E7E7F53
:103E60007E8384818284817B7A7776767A7F808371
:103E700086868688878481807F7D7C7C7D7D7D7E33
:103E8000818081848380817F7B7978787B7D7F824C
:103E9000838487898584808080807E7C7C7C7D7D16
:103EA0007D7F8281838181807F7C7A7A7A7B7E7F2D
:103EB000828486888684818181827E7D7C7B7B7CF6
:103EC0007C7D808482808282807E7E7B797A7D7D0B
:103ED00081848686868582818183807C7B7B7B7BD7
:103EE0007B7D80828282828183807E7D7A7A7B7CE8
:103EF00080838385868482828282807D7C7A7B7CBB
:103F00007C7C7F828183838384837F7E7D7A7B7BBD
:103F10007D818282848483818181807E7D7B7B7BA5
:103F20007C7C7E8182838484858481807E7B7B7B94
:103F30007C808181838281828080807E7C7D7B7B8E
:103F40007D7C7E818283858486868380807D7A786D
:103F50007B7F7E7F82807F82807F80807D7D7B7C77
:103F60007D7C7D818283868586868483817C7B7A45
:103F7000797C7F7E7F807F80817F807F7D7D7C7A62
:103F80007E7E7D818484858686878584817E7A7A1B
:103F90007A7B7D7E7F7F7E80817E7F7F7E7B7E7D44
:103FA0007D7D7F8282858686848787847E7E7C7AFB
:103FB000787C7D7C7E7F7F7E807F7F7B7E7E7E7D2A
:103FC0007F807F818486858685878483817D7B7BD6
:103FD00079797C7C7E7F7E7E7F7C7E7E7D7E807F0D
:103FE0007E8181828385878783868682807F7C78B5
:103FF0007A7A7C7C7D807F7B7E7E7B7C7E807F7FEF
:104000007F817F828686858888838384827C7D7990
:104010007A787B7F7E7D7F7D7B7B7B7D7E7F7F82D1
:104020007E7F82848487888785858482807E7D7870
:10403000797B7D7E7F807E7B7B7B7A7C7D807F80B1
:104040007F80828487878788878383827F7C7C794F
:1040500079797E827F7F7E7B797A7A7D7D7E808191
:104060007E81868587898986858482807D7D797732
:104070007A7D7E82827F7C7A78797B7B7D7E7F7F72
:104080008182858889888886848281817C79787A12
:104090007A7E8283807D7B7978797C7C7C7E80804F
:1040A000828488898889878482847F7C7C7A777AF5
:1040B0007E818281817C7A7779797A7C7D7D7F802F
:1040C0008487898B8987838584817D7E7A76797DD3
:1040D0007F8182817D797B7A7A797C7B7C7E7F830C
:1040E00087898A8A8785838384827C7B79797B7DB3
:1040F00080807F7D7C7C7B7B7D7B797B7E7F8187E5
:104100008989868786848386857D7B7A797A7E7E97
:104110007D7B7D7E7D7D7E7F7C79797C7F818488BF
:104120008785868685868684807C7B787C7F7C7B81
:104130007A7B7D8080807F7B7B7B7B7E8283838498
:1041400084858787888583807E7C7C7D7B787A796F
:104150007A7F8282807E7A7D7D7E80807E80828270
:10416000858988858583847E807F7B7676787A7C56
:1041700082847F7F7F7F7E81807F7B7B7D8284873F
:1041800087858384858585817E747476777B7F813E
:10419000807D7F818383837F7C7C7A7B828684841D
:1041A0008384868789897F78757475797D7E7C7E26
:1041B0007F82838586817D7A7D7D7E8082818283F8
:1041C0008685898A857F777673767C7C7B7B7F7F0B
:1041D00082868583807F7E7D7F7F7F7E80848586CB
:1041E0008588888481797574777B7B7C7C7D7D82F2
:1041F000888483837E7D7F807E7E7F7E82858688A5
:10420000858484817A767877797A7C7E7C7E8385D2
:104210008585837E80817F7F7F7D7D818487868386
:1042200082817F817A7778777B7E7D7C7D808287B3
:10423000868180808181817F7C7C80848582827E72
:104240007E8286807879797D807D77787C8186868C
:104250007F81818386847F7B7E7F8383827F808151
:104260008686847A777C7C7F7973757C8185838070
:104270007D848686847D7D7F808283807E82868623
:1042800085837F7B7C7E7C7A76787C7F8182807D53
:104290008084827F7F7C7E80807F7F808285858511
:1042A00086837E80817E7D7C7A7C7F7F7F7F7E7D22
:1042B0007F7F7F7F7D7D80807E7F80818181818403
:1042C000848280828181817F7F80817F807E7D7DED
:1042D0007C7C7D7D7B7C7C7E7E7E7E8081818184FA
:1042E0008584828285817F838281837F7D7E807FBA
:1042F0007B7A7B7C7B7B7A7D7D7E818382828484DA
:104300008383817E8382807F8281838281807C7FA0
:104310007D7A7779797C7A7B7C7F828487858383B9
:104320008584848281808281808082807D7E7F7C82
:104330007B7B7A78757A7D7D7D7F8287848184849A
:104340008485848183818282827F7B82827C7C7D62
:104350007C7B7576797D797C808485858382868572
:104360008682848184807F7D7E83817E82857F7941
:1043700070787A7A73777C81868383868887868152
:104380008284847D7E7B7F83807D858484827B792B
:10439000777A757676787D8282828789868685842B
:1043A00083827E7B7F807D80848183817F827E7318
:1043B000787B76777B7C7E85818488868387838003
:1043C000817B7D807D7E8480817F83848376777FFF
:1043D0007B77787C7B848081838884858383817DDF
:1043E0007D7D7C7E817F817E8684847D7A7E7F79DF
:1043F000787C7C7E807F80888584848681807F7ABB
:10440000797E7D7D7E7D84858382807D847D7A7BBF
:104410007F7B7E7C7E85848283878183827C7B8098
:104420007A7B797E81838083817E86817E7C817C9C
:104430007E7B7D80838082837F85847D7F827A7A84
:104440007B807D807E83817D83848180827D807F6F
:104450007D7D827F7F7D8084807C83827B7A7D816D
:104460007D7E7F84807D82848082828181827D7D49
:10447000827E7C7B82817B7D84807B7A80807B7D59
:1044800083827E7D81848081828481838082827F19
:104490007A7C837F7980827C7B7C827E7B7F857E39
:1044A0007C7D8381808082828184818483837C7E01
:1044B000817D7A827F7B7A7D827D7B81847D7F7E18
:1044C000827E7F7F837F8084828384827C82827CE1
:1044D0007C827D7C797F827C7983837D7F81837DF3
:1044E0007E80857D82837F8285827D83827C7E80C3
:1044F0007C7B7880817A7B85807C7E84827D7E83D4
:10450000837C8383808085817D81827E7F7E7C7AAF
:1045100079807F7A7F857F7B7D84817D7F847F7DAD
:104520008584818386817C81827E7E7F7E787A808D
:104530007E7B81827F7B80837E7C82837D7E848480
:10454000808386827B82817D7D807C787D807D7E7C
:1045500081827C7B83817E7D82807F808382818457
:10456000867F7A84807C7D807B7A7F807F7E81805D
:104570007C80807E7E7F807F807F84838284847D38
:104580007E837C7C7E7F797C7F807F7F817D818143
:104590007F80817E7F81807F83828385837C80840E
:1045A0007C7C7C7E787D7E7E7E827F7E827E7E822B
:1045B000837D81808181837F8483837F80807E7FF0
:1045C0007E7D767C7F7F7D7F7982857E7E837F8006
:1045D000857E80818281857F82807F81827D7E80D1
:1045E0007A7D7D7B7D7D7981807D81857F82837FE2
:1045F00084827E808480837E7A81837D7F817B81BB
:10460000807C7A7B7B7E7E7C8183828384808482B3
:104610008080828081807B7F82817E817D7F827E9F
:10462000777A7D7B7D7C7F83868083858581807F93
:1046300081827E807F807F8280817D7B7F807A788F
:104640007E7E7E7C7C7F86838183848382807F8064
:1046500080817E7D7F807F7F7F7E7E7F7F7D7C7E71
:104660007F7F7D7D7F82828081828282807E818148
:10467000807E7E8080817F7F808080807D7E7F7E47
:104680007E7D7C7D7F7F7F8082828282818181822C
:1046900080807F8080817F818180807C7E807E7C25
:1046A0007C7B7D7E7D7F818182828283838381800A
:1046B0007E7F7F807E818182817F7D7F807E7C7A0C
:1046C0007C7D7D7C7E7F8182828283858583807EE6
:1046D0007F807E7D7E8281817F7C80817F7D7B7AF1
:1046E0007E7D7D7B7E8183828284858785827E80BC
:1046F0007F7F7C7D7E8181807C7D81817F7A7A7CD9
:104700007E7D7C7B80828382838586868380808099
:104710007F7D7C7D7F82807D7E8082807C797D7CB8
:104720007D7C7C7D81828282848786858082808177
:104730007D7D7C807F817D7F7F81807D7C7A7D7B9C
:104740007D7B7F7E82808383878586838181818054
:104750007C7E7E7F7F807C8280817C7D7A7B7D7B7E
:10476000797D807F80818486878585828381827E32
:104770007D7C7D807F7C7F81837E7C7A7D7D7C7962
:104780007A7E80807F81838A878782858285807D0B
:104790007A7D7E807B7B8082837A7D79807D7D7649
:1047A0007C7E837E7E81868A8787808583867C7CEB
:1047B000787F7E80797D8184827B7A7B827D7B7726
:1047C0007D7E837E7F7F868A89837F8385847B7AD3
:1047D0007A80817F797D8286807B787C817F797900
:1047E0007B80837F7E8289898B817B7F877F7B79BA
:1047F0007E83877D7B8385857D78727C7C7A767EDF
:104800007C838484848387888B7B757A857F7E7B99
:1048100082898C807C818382787571787A7D7B7FB8
:1048200080868786808389898573707D87807B7C7D
:104830008A918B777882837B75747D7F77797F838C
:1048400083857F85858582877D74767E7F80808362
:1048500091918874767D7F757376847F7B7F858662
:104860008580798181847E84787B7B828185838940
:10487000908B7C6A797B7E747B808F7F7B7C84804D
:104880007E7676888789828A757E787F7985818D24
:104890008E877A717D7B80717E8190777977867D36
:1048A0007F75808E8C888081707D727F7B8C8595F2
:1048B0008E8872717A7B7B737F8890757977857B20
:1048C0008073878F8F8583776E7B757D7E8F8B9AC4
:1048D00089826A74757E7877839090757477847A0C
:1048E0007E74898E9384806D717A7A7F85918E979C
:1048F000847964747581797F89968A726D74817EFA
:104900007E788E9194847A646F7A8282899093946F
:10491000816E6074798780858A97886E64728184DD
:10492000827E8C939281715F6E7D8A858C8C928F52
:104930007F645E73838F8585889385705D6D818FBD
:10494000868385908E826E5C6B81968789858F8C3D
:1049500080615E738A978A81809189765A687D9595
:104960008E847C889185755A687D9D89847E899026
:10497000886859728A9C8C81768C8B815F6379966A
:1049800096827B7B9287835C64779B8F807D819608
:104990008A73566F839F918071888F896B5C738C4B
:1049A0009C807E71908B8D675B6F8D9B80837995EA
:1049B000907F57667C999A85737B928C7C566B7C32
:1049C0009E88827282948E7C506879A28C867A89C5
:1049D00098856659758DA38C7A748C8B8A605D710D
:1049E0009398817B73968C8B595C6E94A087837AA5
:1049F000988870596A85A19B8071808B8B6E596BEA
:104A000084A089826F8A8E8D6C526C83A88E89787F
:104A10008A8E7263638299A1897376858C795E66CA
:104A20007B9D9285737B8F8C80566677A19D8A7F54
:104A30007890746E627A939D9576757A8A816865AE
:104A40007494968878718C8B8B655F7291A58C8934
:104A500071897B736A718F959C7B7474848671698C
:104A60006F8B968A7E70858B8F735C6F85A58F8B1D
:104A7000737E7F72746D8C909A8173747D88746D6F
:104A80006E84948B8272818C8F7F5D6A7BA0948C04
:104A9000797681727A6D878C96887575778878714A
:104AA0006E7E928D85787D8B8D88646675959B8DE5
:104AB00083717E747C727F8C908B787874857C7225
:104AC00071798D90897B7A898A8C6D62708C9E8FCA
:104AD000887277757C797E878C8D7D7775817E7401
:104AE000727A8A90887E7888898D73616D869E94AB
:104AF0008A7372767D7B7E848B898279757E7E79DE
:104B0000737C868F88807985878B7A636A829B978E
:104B10008C776C747F7E827C8787867D757C7A7CBF
:104B2000747F848D89807B838A887E66687F979A6C
:104B30008D796772807F857A86858980747B767DA2
:104B40007581838A8A817E838A878068667D959B4A
:104B50008E7964728183877982838A817778737D85
:104B600079828388888282858886806B687B919B26
:104B70008E796273828787777F808C827975737B69
:104B80007B8583868684838687857F6F697C909901
:104B90008D796373828788767C7E8C827D7474794C
:104BA0007E8783868484828986847F6E6A7C9098DF
:104BB0008D756376838C8576787F8D84817075762C
:104BC000808783848186828B86837D6F6E7D9195BD
:104BD0008870667A878E807674828C887F6F76750F
:104BE000838684828287848D83827C716F7D8E919F
:104BF000856E6C7B8B8C7F7373868A8A7D717674ED
:104C0000868486808389858D818379736D7D8C8F81
:104C10007F6D747F91867E6E7687898B77777477C8
:104C20008882897F8785888A818576756B80888A66
:104C30007774788593817B6A7D858F86767B727D9C
:104C40008583867F8A828B84828279766B83838652
:104C5000747B7C8D8E7E756B8186907F7A7A767E72
:104C6000818482838A81888085817E766C827E8140
:104C70007982818D897B717280898C7C7C787A7F46
:104C80008283838686808480868280726E7F79822A
:104C90007D85868A87757672828B857E797F79801D
:104CA00080848687867C847F8A837F6D717B77870B
:104CB0007E8A848D807577738982887C7D7D7883F8
:104CC0007C8A838B7F7D83808C80816675707F85F5
:104CD000858E828D737F6F808482877A85717E7ADC
:104CE000868A858A76847E8C86837766746F8A80CE
:104CF00091848B7F777C7289798B7B8777737E7BBE
:104D000092858D787E82858E7E83686E6E808486A5
:104D10008F848B777F73817D82818085707A758D9A
:104D20008E8C817682839084807467717886808A85
:104D3000878A827A7779837D827D8677757581927D
:104D40008D89757F838C8A817B676B798683838667
:104D500088887E76777E837F82807D74777E8D9053
:104D6000877E7886848F81816A6579848A8087804E
:104D70008B807B767A818186807E6F78818B8E8630
:104D8000807B87838A80826F6475818B84887D862F
:104D900080807A787D7F8681826E74818C8D85801B
:104DA0007C8B83897D837065767F8C818A7F897C0B
:104DB0007D7B7E7F7C837F866F787D8E88878080F9
:104DC0008782897E8466697689887F84868C7D7CEB
:104DD00072837F837D7E82737D7D8D8387808686CF
:104DE00083828180626F778B8582818A85807B74E4
:104DF000807E837B88797676878C85817E898A8997
:104E00007B7F6B6E797F7E7F868F8B7A7D7A827EC9
:104E10007A77868D7C6F738B8E867D7F8A8E887E77
:104E20006F6776858078778F938678787F847E73B6
:104E30007F868B77717D8A878083848F8682756F6A
:104E40006F7C807C7F848E84827C847D787682896E
:104E5000867C6F828987788185918A81776E777762
:104E60007F747E8793847C7D858676757889888536
:104E7000737A8386817D81888D86806F70757F7B54
:104E800079828C8B827F828277777D84818080801B
:104E9000827F7D7F858787847F777573787A768830
:104EA0008C867E828987776F7F84887C7E7D8583F0
:104EB000817D7C83888F7B75717A7C7B70818C8906
:104EC000858089847D74837B807D87827A7D8489D7
:104ED0007C7F7C8F7F7C7575767975828C7D8586ED
:104EE0009284797188837E7A7F867B7E81877A84BB
:104EF000828B79777A7C7A72707E918183808F89B8
:104F00008176807C7D848483747C868B7D7F7F8AA0
:104F1000807876757C79757B847F87888C847C7DAE
:104F2000877E7A7F848A7E797E83808884837A7C78
:104F30007B7879717380877E7E838E8A7F7C7F7E8B
:104F4000828481807D7E86817A81888B817A747863
:104F500080756F797F82848684838086817A7D8460
:104F6000878381768283867E80838382777B7B754D
:104F700073817B7C7E888A857E807E7D858082822F
:104F800089798081837D84867E7B75837E77737E3D
:104F900078828182838687837B78827D8686867607
:104FA0008088867C7D85817E777C787C7D7C757E23
:104FB00083828685837F828380777F88887C7B85D8
:104FC00083818285777C817C787C7B787F80847903
:104FD0008289877C81827E7F8184817E7D89817EBA
:104FE0007D8578837E717E847A757E7D887E8483DC
:104FF0007F7E8981797E8089877D768586847D7AAA
:10500000738483767F7D7B808379807E858A7E7BB7
:10501000818281827B8488837D7E827E807C7A7A95
:10502000787A88827A7C8082857F7C848383808082
:105030007B7F838786817F80877F75787D797E7887
:1050400079838782807E81837E857E7B81897B7B5D
:1050500080838C85847B82817C776F76827A78846A
:1050600081818888847C7B85827A7D817C8383832F
:1050700085868B857B7A82746C797C737C8587834B
:105080007F868D83817E797D817E7C7E7E8B878508
:1050900088897B7F8570677879757D7B858A888331
:1050A000878488857D78787D7F7F7D8485868D87E0
:1050B00083807B7A736E6D757B7F80868A888A8811
:1050C0008485817F7E7A747B8285838185848C86CA
:1050D0007B727878726E747B7F85898A87868C8DE7
:1050E0007B7B83827C7877818284858082848C7AC2
:1050F0006D7C786D757C757A85908F81878D8682C1
:105100007F7D7C7E807D7B77888A8181877F747BB1
:105110007C736E797B7A78838D8F8B86848485848B
:105120007F787B8080797D7D848A8A827A78787D99
:105130007974717A7E7F80878A8D8C858182848262
:105140007F77777D827B7C82838C897F7A74747F82
:105150007971757B828483878F878989817E827E3E
:105160007A78757A84808186858885866F70797A69
:1051700071787E7A81868F8986848F877E777B7E21
:1051800078767B7D7D8A8B87818589796E76717152
:105190007E7F7B7D818F9585808C897D7B7A767AF9
:1051A0007C787C7B868E8C867F87837174776B722C
:1051B00083827C7D89948E8289867F7D78797874DC
:1051C00079827D7E8C8C8D8782837774776F6B7B01
:1051D000808080848E918A84898178777F757278C7
:1051E000808180878A8D8E8A7E7A797473707176D9
:1051F0007D84858B8B8F86898678777979747A77A9
:1052000081858589898E8F8B78777C706E727371BA
:105210007D858C8D898B9088787D7A74787A787A80
:10522000818689878A908D887D747975676F75719D
:1052300077888E8C898B938077807A73787B7A7D60
:105240007E868C898C8D8A857D7F726B72736D737F
:105250007C868E888B8E867E867B717C7B7A7A7B41
:105260008088898B8B858C837A7D7B6D6E7C726F59
:105270007B8B8983868D867D847F757A7F7E797B23
:10528000838888878B88887B7E7E74727F796D7D2A
:105290007D828685818B807C867D767E7D7982800D
:1052A000818488898B85867E7A8077707A817C7705
:1052B000798B868083857B79827F767580808181FA
:1052C0008684868C8A828384797B797177807D7FDE
:1052D0008480888E827A7E7A767B74727D818387E1
:1052E00085888A8B868581867C727D767079877DBC
:1052F0008287908882867C7672767272737F8684CB
:10530000888C89878B8A8181817A757A7775808488
:105310007F81888F907F7D7E746F74706F778386B6
:1053200085858B8D898A8381818579747C7F797B62
:105330007F7F84868D8C80748279697176717A849E
:105340008285858A8E88848981818682777B7E7B2F
:105350007A7A7F828986897F797F786C7479727E88
:10536000868080868C8E858289858486807D7A7D04
:105370007D78767E85858582797D7E73717E79786C
:105380008380808088898B8388868686807F837FE0
:10539000737F7A797E8582807478817A727D7E7B54
:1053A00084827D7C86888B8188868385837E8383C7
:1053B000807D7B7E7F7F7E7A6E7B7A78767F80822F
:1053C00084848079838B89808584838482808482AD
:1053D0008486837A807F797172767179787F80850F
:1053E00085867E7E8589848383807F8489817F858D
:1053F00088858482827A77777467737B74788284F5
:1054000085868086868787837C8080858481848862
:10541000848486847D7C80746E6F7771767A7C7DDF
:1054200084868687868A858481807F868383848339
:105430008584837882827C79727972717979727AC3
:1054400084838888888A8888848080858283828013
:10545000827C827D7D7E817E7D73797C6D7379799E
:105460007B87848888898B868486848184817D7A01
:10547000817C7C80817B8181808171737A72727F73
:105480007C7E85898A87838B8B8484837D7E8278EA
:105490007A80807C807F7F83807E7B70787E777748
:1054A0007D818686828887888A867A86847A7C80CF
:1054B0007C7A817D7E7D7F82827B7E78797F7A791E
:1054C00081808085818488827F8B807F81827C7FC0
:1054D000817E7D7B7E7B7F7F828080797C857E78EC
:1054E00080837E8383798186838683817E83827FA6
:1054F0007C7F7D79797D808284827F7C82827D7AC7
:105500007D817D79807E818688847E86837D7E8193
:105510007E7C7C7A7D7F828584847C7C837F787DA1
:1055200079787F7D7F82848085868180817E80827C
:105530007E7C7C81817F848783807D7C7B7B777D83
:10554000777A8085807F85838083847B8080857E59
:105550007E7E8283828384897C7E8072727F7A7869
:105560007D7F80848580808181827F7F808182832E
:105570008182828288877F7C847774777679807E47
:105580007A82818286827B80808382807C82868808
:10559000827E8685847E8377767C7C72797D7D852C
:1055A0007B7A848581847B7C848781807E868786E4
:1055B00085817D7F867E747781777C7779817F7E18
:1055C000827B7A89827F7E828286838680838989B4
:1055D0008079817D7F7A7E787C797E80757B8581FC
:1055E00079817C818484817F7F89868384847F83A1
:1055F0008579797D837B8279767E81777B7D7A83DD
:105600007F7D7F8484878282828388887B7F837D7D
:105610007F80797D82818177787B7B7B7D757C80C3
:1056200082818383858988827E8383877F797E8157
:105630007F817F7E8686788077707F7E72757D7DA4
:105640008982848686898B7C7D857D81867D7A8131
:105650008484828082847C7E757478797379797C85
:105660008688888385858A7F7E7D7F8288807B7F10
:10567000868783827C817E827A76777F7673797B58
:105680008083847C86878585837B808A89817C7FF3
:1056900086867D7F7F7C7F80807C787E8177787D29
:1056A0007576827E778287838284868A88888581E0
:1056B0007F83817E787A8284807D7F7B7F827A720D
:1056C0007D7D777B7D777B83838280898C8D8383CF
:1056D0008283827F7D788282877F7E7E847B707FDB
:1056E00076747C82797D8383828181818486857CC6
:1056F0007E8383817F7F82838686837F7C7A7C78AA
:1057000070737E7D787B8084878787868688837D9B
:10571000797B7D807C7A7F85888884817D7B827B94
:1057200073797E7B7A767F847E818880818D897F84
:10573000808584827A80797B81827A797B76817F89
:105740007C7C86828382808182837C7E7E80817F56
:105750007C7E84858483878786867C757474717863
:1057600076717B8182818589908C898A837F847B15
:105770007478787A7F7D7F8787888480828382832C
:10578000756F77747075797A82888D8E8B8E90881C
:1057900082827E7A7C77787A787A7E7A7C85858830
:1057A000868383807C7F77707A7D78797F83868417
:1057B000878886878C88807F817A797874797B7DE9
:1057C0007B7F7E848686848085877E7A8179767CDD
:1057D0007C787D8283848283848585838381817EB6
:1057E0007D7C76787E7C7B81818486857F808182CA
:1057F000807E7E7F7B7C7E78797E827F80808585BF
:105800008583828384827D7E7B7B7E7C787B8183A3
:105810008083818183857F7E7E807F797C7B7B7C9A
:10582000817D7E8284848585878682837D7B7C7A68
:105830007B7C7A7D80817F817F8285827F7D7F7F77
:105840007C7A7E7C777D837E7D8386838384878656
:1058500085827D7D7C79787B797E8283817F7E8164
:1058600085807D7E817F7A7C7D7D7B7E8080818549
:10587000878484828584817D7E827E7B7B7C7A7E28
:1058800081817E7F817D80827E7C807F797D7F7F2C
:105890007F7E80828182848284868584827D7D7FF2
:1058A0007B7C7D787A7F7F7F808083807D86837B11
:1058B0007F80787C7E7A7D7E7E83858386858287E5
:1058C0008683817D7C7B787A7E787A8184838385E8
:1058D00084838083827C77797A78787A7F7E8083EC
:1058E00088898785848483817C7D7D7A7A807C7BAE
:1058F0007E818584828485817F7E7E7B75767B77C1
:10590000787E7F7F8381858A8786878784837D7E73
:1059100079777D7E7B7C7F80848282848382827C97
:10592000797C7B7777757B7F7F828584888C858384
:10593000828584817C7E7A7A807B7A7E8381828272
:10594000838784827E787B7E7A757A797C7D7E7D82
:105950008185878B8689858780807E7B7C7B7B7831
:105960007D8083808083888785837D797A7674754E
:1059700076787D7F828483878989878885827D8008
:105980007E7A7D7B797C8081848281828382817E24
:105990007A7A7A78787A7B7A7C808383838787881F
:1059A0008789827F8180807E7E7B7C7B7C7D7F80FF
:1059B000817F7F80817E7B7A7A7B7D7E7B7C828605
:1059C00082838183878984848480827E7C7C807CBE
:1059D0007A7B7C7C80827C7D7F827E7C7F808081E4
:1059E00081797C7F818181808283848483838283A7
:1059F000817E7D7F807F7D7C7B7E7F7E7E82807FBF
:105A0000807D7A7D7F7C7D7A7C808482818485859F
:105A10008584818285857E7E7D7E7E7E7E7F7F7D84
:105A20007E7E7B7B7D7B7A797E7F7E7F8080838498
:105A3000818485848586838281828282837F7D7E44
:105A40007F7D7D7A78787A7C7B7B7C7F807F7E808F
:105A50008181818182838484848488878584818113
:105A600083807C7A777B7E7D7C7C7B7E7E7A797B73
:105A70007D7D7F7C7E808281848688888685858402
:105A800083827E7E7D7F81827D7D7E7E7C7C7D7A31
:105A90007B7B7A787A7A7C80828280828585848218
:105AA000838384818385858683807F817D7F7E7BE0
:105AB0007B7E7F7B78797F7C79797C7C7D7E7D7D28
:105AC0008183818486868989858383858383818197
:105AD000807F7E7E7F7E7E7D7E7C7A78777777770B
